:100000000C942A000C9434000C9434000C943400AA
:100010000C9434000C9434000C9434000C94340090
:100020000C9434000C9434000C9434000C94340080
:100030000C9434000C9434000C9434000C94340070
:100040000C9434000C9434000C9434000C94340060
:100050000C94340011241FBECFE5D8E0DEBFCDBF25
:100060000E9436000C9461000C94000084B384BBA1
:1000700028EC30E0AB98AA98A998A89A80E197E27A
:10008000F9013197F1F70197D9F7A898A99A80E17A
:1000900097E2F9013197F1F70197D9F7A998AA9A50
:1000A00080E197E2F9013197F1F70197D9F7A99823
:1000B000AB9A80E197E2F9013197F1F70197D9F70F
:0600C000D9CFF894FFCF38
:00000001FF
